:020000040800F2
:100000006806002039020008410200084302000887
:1000100045020008470200084902000800000000ED
:100020000000000000000000000000004B0200087B
:100030004D020008000000004F02000851020008B5
:10004000530200085302000853020008530200083C
:10005000530200085302000853020008530200082C
:10006000530200085302000853020008530200081C
:10007000530200085302000853020008530200080C
:100080005302000853020008530200080000000059
:100090000000000000000000000000005302000803
:1000A00053020008530200085302000853020008DC
:1000B00053020008530200085302000853020008CC
:1000C00053020008530200085302000853020008BC
:1000D0005302000853020008530200080000000009
:1000E00053020008530200085302000800000000F9
:1000F00000000000000000000000000053020008A3
:1001000000000000530200085302000853020008D8
:1001100000000000000000000000000000000000DF
:10012000530200085302000853020008530200085B
:100130005302000800000000000000000000000062
:100140000000000000000000000000005302000852
:10015000530200085302000853020008530200082B
:1001600053020008530200080000000000000000D5
:10017000000000000000000000000000000000007F
:100180000000000053020008000000000000000012
:10019000530200085302000800F002F800F03CF897
:1001A0000AA090E8000C82448344AAF10107DA45D2
:1001B00001D100F031F8AFF2090EBAE80F0013F0E8
:1001C000010F18BFFB1A43F0010318474802000053
:1001D00068020000103A24BF78C878C1FAD85207E4
:1001E00024BF30C830C144BF04680C6070470000B1
:1001F0000023002400250026103A28BF78C1FBD830
:10020000520728BF30C148BF0B6070471FB500F0D0
:10021000F4F81FBD10B510BD00F031F81146FFF71E
:10022000F5FF00F0AFF800F04FF803B4FFF7F2FF6E
:1002300003BC00F057F80000094880470948004710
:10024000FEE7FEE7FEE7FEE7FEE7FEE7FEE7FEE786
:10025000FEE7FEE704480549054A064B70470000E3
:100260006903000899010008680000206806002062
:10027000680200206802002070477047704775468A
:1002800000F02CF8AE4605006946534620F0070002
:10029000854618B020B5FFF7DDFFBDE820404FF0E0
:1002A00000064FF000074FF000084FF0000BAC467F
:1002B000ACE8C009ACE8C009ACE8C009ACE8C009CA
:1002C00021F007018D46704710B50446AFF300805A
:1002D0002046BDE81040FFF7A8BF00000048704767
:1002E0000800002001491820ABBEFEE726000200EE
:1002F0007047000080B500F015F843F63000C4F2F6
:100300000200016841F00101016080BD80B500F08C
:1003100009F843F63000C4F20200016841F004011C
:10032000016080BD43F60800C4F2020050F8081CCA
:1003300041F0010140F8081C50F8081C8907FBD562
:10034000016821F00301016001680160016811F09A
:100350000C0FFBD140F2000042F20041C2F200005B
:10036000C0F2F401016070474EF68850CEF20000F2
:10037000016841F4700101604FF0006140F8801C99
:100380007047000040F60C040025C4F20204C4F2D9
:100390000205FFF7AFFFFFF7B9FF286820F44060C0
:1003A0002860286840F480602860686820F0200099
:1003B0006860E86820F44060E860A86820F4406065
:1003C000A860A86840F40060A860D5F8000820F094
:1003D0004060C5F80008206820F040602060206878
:1003E00040F00060206000BF60686969400B60F306
:1003F000451181F020006861F6E7F1EE100A4FF632
:10040000FF71C0F2C03120EA010040F04070E1EE1F
:10041000100A70473804000800000020080000009F
:10042000D401000840040008080000206006000015
:10043000F0010008000000000024F40000000000AB
:040000050800019955
:00000001FF
